{
  "contractName": "TodoList",
  "abi": [
    {
      "inputs": [],
      "stateMutability": "nonpayable",
      "type": "constructor"
    },
    {
      "inputs": [
        {
          "internalType": "string",
          "name": "_name",
          "type": "string"
        },
        {
          "internalType": "enum TodoList.State",
          "name": "_status",
          "type": "uint8"
        }
      ],
      "name": "addTask",
      "outputs": [],
      "stateMutability": "nonpayable",
      "type": "function"
    },
    {
      "inputs": [
        {
          "internalType": "bytes32",
          "name": "task_hash",
          "type": "bytes32"
        }
      ],
      "name": "getTask",
      "outputs": [
        {
          "components": [
            {
              "internalType": "bytes32",
              "name": "Identifier",
              "type": "bytes32"
            },
            {
              "internalType": "string",
              "name": "Name",
              "type": "string"
            },
            {
              "internalType": "enum TodoList.State",
              "name": "Status",
              "type": "uint8"
            }
          ],
          "internalType": "struct TodoList.Task",
          "name": "",
          "type": "tuple"
        }
      ],
      "stateMutability": "view",
      "type": "function",
      "constant": true
    },
    {
      "inputs": [
        {
          "internalType": "bytes32",
          "name": "task_hash",
          "type": "bytes32"
        },
        {
          "internalType": "string",
          "name": "_taskName",
          "type": "string"
        },
        {
          "internalType": "enum TodoList.State",
          "name": "_status",
          "type": "uint8"
        }
      ],
      "name": "updateTask",
      "outputs": [],
      "stateMutability": "nonpayable",
      "type": "function"
    },
    {
      "inputs": [],
      "name": "sayHello",
      "outputs": [
        {
          "internalType": "string",
          "name": "",
          "type": "string"
        }
      ],
      "stateMutability": "pure",
      "type": "function",
      "constant": true
    },
    {
      "inputs": [],
      "name": "getTaskList",
      "outputs": [
        {
          "components": [
            {
              "internalType": "bytes32",
              "name": "Identifier",
              "type": "bytes32"
            },
            {
              "internalType": "string",
              "name": "Name",
              "type": "string"
            },
            {
              "internalType": "enum TodoList.State",
              "name": "Status",
              "type": "uint8"
            }
          ],
          "internalType": "struct TodoList.Task[]",
          "name": "",
          "type": "tuple[]"
        }
      ],
      "stateMutability": "view",
      "type": "function",
      "constant": true
    }
  ],
  "bytecode": "0x608060405234801561001057600080fd5b50610ecc806100206000396000f3fe608060405234801561001057600080fd5b50600436106100575760003560e01c806315a290351461005c5780632e7663d81461008c57806338940fae146100a8578063dbb9ae77146100c6578063ef5fb05b146100e2575b600080fd5b61007660048036038101906100719190610769565b610100565b6040516100839190610905565b60405180910390f35b6100a660048036038101906100a19190610a81565b610203565b005b6100b061037d565b6040516100bd9190610c02565b60405180910390f35b6100e060048036038101906100db9190610c24565b6104b3565b005b6100ea610609565b6040516100f79190610cca565b60405180910390f35b610108610646565b6000808381526020019081526020016000206040518060600160405290816000820154815260200160018201805461013f90610d1b565b80601f016020809104026020016040519081016040528092919081815260200182805461016b90610d1b565b80156101b85780601f1061018d576101008083540402835291602001916101b8565b820191906000526020600020905b81548152906001019060200180831161019b57829003601f168201915b505050505081526020016002820160009054906101000a900460ff1660028111156101e6576101e561083e565b5b60028111156101f8576101f761083e565b5b815250509050919050565b604051806060016040528084815260200183815260200182600281111561022d5761022c61083e565b5b81525060008085815260200190815260200160002060008201518160000155602082015181600101908051906020019061026892919061067c565b5060408201518160020160006101000a81548160ff021916908360028111156102945761029361083e565b5b021790555090505060005b6001805490508110156103775783600182815481106102c1576102c0610d4c565b5b906000526020600020906003020160000154036103645782600182815481106102ed576102ec610d4c565b5b9060005260206000209060030201600101908051906020019061031192919061067c565b50816001828154811061032757610326610d4c565b5b906000526020600020906003020160020160006101000a81548160ff0219169083600281111561035a5761035961083e565b5b0217905550610377565b808061036f90610db4565b91505061029f565b50505050565b60606001805480602002602001604051908101604052809291908181526020016000905b828210156104aa5783829060005260206000209060030201604051806060016040529081600082015481526020016001820180546103de90610d1b565b80601f016020809104026020016040519081016040528092919081815260200182805461040a90610d1b565b80156104575780601f1061042c57610100808354040283529160200191610457565b820191906000526020600020905b81548152906001019060200180831161043a57829003601f168201915b505050505081526020016002820160009054906101000a900460ff1660028111156104855761048461083e565b5b60028111156104975761049661083e565b5b81525050815260200190600101906103a1565b50505050905090565b600082826040516020016104c8929190610e6e565b6040516020818303038152906040528051906020012090506000604051806060016040528083815260200185815260200184600281111561050c5761050b61083e565b5b81525090508060008084815260200190815260200160002060008201518160000155602082015181600101908051906020019061054a92919061067c565b5060408201518160020160006101000a81548160ff021916908360028111156105765761057561083e565b5b021790555090505060018190806001815401808255809150506001900390600052602060002090600302016000909190919091506000820151816000015560208201518160010190805190602001906105d092919061067c565b5060408201518160020160006101000a81548160ff021916908360028111156105fc576105fb61083e565b5b0217905550505050505050565b60606040518060400160405280600581526020017f48656c6c6f000000000000000000000000000000000000000000000000000000815250905090565b60405180606001604052806000801916815260200160608152602001600060028111156106765761067561083e565b5b81525090565b82805461068890610d1b565b90600052602060002090601f0160209004810192826106aa57600085556106f1565b82601f106106c357805160ff19168380011785556106f1565b828001600101855582156106f1579182015b828111156106f05782518255916020019190600101906106d5565b5b5090506106fe9190610702565b5090565b5b8082111561071b576000816000905550600101610703565b5090565b6000604051905090565b600080fd5b600080fd5b6000819050919050565b61074681610733565b811461075157600080fd5b50565b6000813590506107638161073d565b92915050565b60006020828403121561077f5761077e610729565b5b600061078d84828501610754565b91505092915050565b61079f81610733565b82525050565b600081519050919050565b600082825260208201905092915050565b60005b838110156107df5780820151818401526020810190506107c4565b838111156107ee576000848401525b50505050565b6000601f19601f8301169050919050565b6000610810826107a5565b61081a81856107b0565b935061082a8185602086016107c1565b610833816107f4565b840191505092915050565b7f4e487b7100000000000000000000000000000000000000000000000000000000600052602160045260246000fd5b6003811061087e5761087d61083e565b5b50565b600081905061088f8261086d565b919050565b600061089f82610881565b9050919050565b6108af81610894565b82525050565b60006060830160008301516108cd6000860182610796565b50602083015184820360208601526108e58282610805565b91505060408301516108fa60408601826108a6565b508091505092915050565b6000602082019050818103600083015261091f81846108b5565b905092915050565b600080fd5b600080fd5b7f4e487b7100000000000000000000000000000000000000000000000000000000600052604160045260246000fd5b610969826107f4565b810181811067ffffffffffffffff8211171561098857610987610931565b5b80604052505050565b600061099b61071f565b90506109a78282610960565b919050565b600067ffffffffffffffff8211156109c7576109c6610931565b5b6109d0826107f4565b9050602081019050919050565b82818337600083830152505050565b60006109ff6109fa846109ac565b610991565b905082815260208101848484011115610a1b57610a1a61092c565b5b610a268482856109dd565b509392505050565b600082601f830112610a4357610a42610927565b5b8135610a538482602086016109ec565b91505092915050565b60038110610a6957600080fd5b50565b600081359050610a7b81610a5c565b92915050565b600080600060608486031215610a9a57610a99610729565b5b6000610aa886828701610754565b935050602084013567ffffffffffffffff811115610ac957610ac861072e565b5b610ad586828701610a2e565b9250506040610ae686828701610a6c565b9150509250925092565b600081519050919050565b600082825260208201905092915050565b6000819050602082019050919050565b6000606083016000830151610b346000860182610796565b5060208301518482036020860152610b4c8282610805565b9150506040830151610b6160408601826108a6565b508091505092915050565b6000610b788383610b1c565b905092915050565b6000602082019050919050565b6000610b9882610af0565b610ba28185610afb565b935083602082028501610bb485610b0c565b8060005b85811015610bf05784840389528151610bd18582610b6c565b9450610bdc83610b80565b925060208a01995050600181019050610bb8565b50829750879550505050505092915050565b60006020820190508181036000830152610c1c8184610b8d565b905092915050565b60008060408385031215610c3b57610c3a610729565b5b600083013567ffffffffffffffff811115610c5957610c5861072e565b5b610c6585828601610a2e565b9250506020610c7685828601610a6c565b9150509250929050565b600082825260208201905092915050565b6000610c9c826107a5565b610ca68185610c80565b9350610cb68185602086016107c1565b610cbf816107f4565b840191505092915050565b60006020820190508181036000830152610ce48184610c91565b905092915050565b7f4e487b7100000000000000000000000000000000000000000000000000000000600052602260045260246000fd5b60006002820490506001821680610d3357607f821691505b602082108103610d4657610d45610cec565b5b50919050565b7f4e487b7100000000000000000000000000000000000000000000000000000000600052603260045260246000fd5b7f4e487b7100000000000000000000000000000000000000000000000000000000600052601160045260246000fd5b6000819050919050565b6000610dbf82610daa565b91507fffffffffffffffffffffffffffffffffffffffffffffffffffffffffffffffff8203610df157610df0610d7b565b5b600182019050919050565b600081905092915050565b6000610e12826107a5565b610e1c8185610dfc565b9350610e2c8185602086016107c1565b80840191505092915050565b60008160f81b9050919050565b6000610e5082610e38565b9050919050565b610e68610e6382610894565b610e45565b82525050565b6000610e7a8285610e07565b9150610e868284610e57565b600182019150819050939250505056fea2646970667358221220bbec4c132847d0358b1441a391951c6a4e668e76901ea7657f9e1cac5dab01aa64736f6c634300080e0033",
  "immutableReferences": {},
  "source": "// SPDX-License-Identifier: MIT\npragma solidity ^0.8.4;\npragma experimental ABIEncoderV2;\n\ncontract TodoList {\n\n    constructor() {\n    }\n    // Struct used to define Task object\n    struct Task {\n        bytes32 Identifier;\n        string Name;\n        State Status;\n    }\n\n    // Fixed values for Task status\n    enum State {\n        TO_DO,\n        IN_PROGRESS,\n        DONE\n    }\n\n    mapping(bytes32 => Task) tasks;\n    Task [] taskList;\n\n    function addTask(string memory _name, State _status) public {\n        // Generate hash as Identifier from name and status\n        bytes32 hash_idTask = keccak256(abi.encodePacked(_name, _status));\n        // Create Task item\n        Task memory task = Task(hash_idTask,_name, _status);\n        //Store this task in our mapping\n        tasks[hash_idTask] = task;\n        // Add this new task inside our array\n        taskList.push(task);\n    }\n\n\n    function getTask(bytes32 task_hash) public view returns (Task memory) {\n        return tasks[task_hash];\n    }\n\n    function updateTask(bytes32 task_hash,string memory _taskName ,State _status) public {\n        // Update name and status from task hash\n        tasks[task_hash] = Task(task_hash,_taskName,_status);\n        // Iterate a task list to update the one matching with the task_hash\n        for(uint i=0;i<taskList.length;i++){\n            if(taskList[i].Identifier == task_hash){\n                taskList[i].Name = _taskName;\n                taskList[i].Status = _status;\n                // break the loop to reduce the computational cost\n                break;\n            }\n        }\n    }\n\n    function sayHello() public pure returns (string memory) {\n        return 'Hello';\n    }\n\n    function getTaskList() public view returns (Task[] memory){\n        return taskList;\n    }\n}\n",
  "sourcePath": "/Users/xnavarro/Projects/Crypto/Metamask_Connector/contracts/TodoList.sol",
  "compiler": {
    "name": "solc",
    "version": "0.8.14+commit.80d49f37.Emscripten.clang"
  },
  "schemaVersion": "3.4.7",
  "updatedAt": "2022-05-31T19:01:19.470Z",
  "networkType": "ethereum",
  "devdoc": {
    "kind": "dev",
    "methods": {},
    "version": 1
  },
  "userdoc": {
    "kind": "user",
    "methods": {},
    "version": 1
  }
}