{
  "contractName": "TodoList",
  "abi": [
    {
      "inputs": [],
      "stateMutability": "nonpayable",
      "type": "constructor"
    },
    {
      "inputs": [
        {
          "internalType": "string",
          "name": "_name",
          "type": "string"
        },
        {
          "internalType": "enum TodoList.State",
          "name": "_status",
          "type": "uint8"
        }
      ],
      "name": "addTask",
      "outputs": [],
      "stateMutability": "nonpayable",
      "type": "function"
    },
    {
      "inputs": [
        {
          "internalType": "bytes32",
          "name": "_hash_idTask",
          "type": "bytes32"
        }
      ],
      "name": "getTask",
      "outputs": [
        {
          "components": [
            {
              "internalType": "string",
              "name": "Name",
              "type": "string"
            },
            {
              "internalType": "enum TodoList.State",
              "name": "Status",
              "type": "uint8"
            }
          ],
          "internalType": "struct TodoList.Task",
          "name": "",
          "type": "tuple"
        }
      ],
      "stateMutability": "view",
      "type": "function",
      "constant": true
    },
    {
      "inputs": [],
      "name": "sayHello",
      "outputs": [
        {
          "internalType": "string",
          "name": "",
          "type": "string"
        }
      ],
      "stateMutability": "pure",
      "type": "function",
      "constant": true
    }
  ],
  "bytecode": "0x608060405234801561001057600080fd5b50336000806101000a81548173ffffffffffffffffffffffffffffffffffffffff021916908373ffffffffffffffffffffffffffffffffffffffff16021790555060008060146101000a81548163ffffffff021916908363ffffffff1602179055506108b0806100816000396000f3fe608060405234801561001057600080fd5b50600436106100415760003560e01c806315a2903514610046578063dbb9ae7714610076578063ef5fb05b14610092575b600080fd5b610060600480360381019061005b91906103c2565b6100b0565b60405161006d919061053c565b60405180910390f35b610090600480360381019061008b91906106b8565b6101aa565b005b61009a61026c565b6040516100a7919061075e565b60405180910390f35b6100b86102a9565b600160008381526020019081526020016000206040518060400160405290816000820180546100e6906107af565b80601f0160208091040260200160405190810160405280929190818152602001828054610112906107af565b801561015f5780601f106101345761010080835404028352916020019161015f565b820191906000526020600020905b81548152906001019060200180831161014257829003601f168201915b505050505081526020016001820160009054906101000a900460ff16600281111561018d5761018c610488565b5b600281111561019f5761019e610488565b5b815250509050919050565b600060405180604001604052808481526020018360028111156101d0576101cf610488565b5b8152509050600083836040516020016101ea929190610852565b604051602081830303815290604052805190602001209050816001600083815260200190815260200160002060008201518160000190805190602001906102329291906102d5565b5060208201518160010160006101000a81548160ff0219169083600281111561025e5761025d610488565b5b021790555090505050505050565b60606040518060400160405280600581526020017f48656c6c6f000000000000000000000000000000000000000000000000000000815250905090565b604051806040016040528060608152602001600060028111156102cf576102ce610488565b5b81525090565b8280546102e1906107af565b90600052602060002090601f016020900481019282610303576000855561034a565b82601f1061031c57805160ff191683800117855561034a565b8280016001018555821561034a579182015b8281111561034957825182559160200191906001019061032e565b5b509050610357919061035b565b5090565b5b8082111561037457600081600090555060010161035c565b5090565b6000604051905090565b600080fd5b600080fd5b6000819050919050565b61039f8161038c565b81146103aa57600080fd5b50565b6000813590506103bc81610396565b92915050565b6000602082840312156103d8576103d7610382565b5b60006103e6848285016103ad565b91505092915050565b600081519050919050565b600082825260208201905092915050565b60005b8381101561042957808201518184015260208101905061040e565b83811115610438576000848401525b50505050565b6000601f19601f8301169050919050565b600061045a826103ef565b61046481856103fa565b935061047481856020860161040b565b61047d8161043e565b840191505092915050565b7f4e487b7100000000000000000000000000000000000000000000000000000000600052602160045260246000fd5b600381106104c8576104c7610488565b5b50565b60008190506104d9826104b7565b919050565b60006104e9826104cb565b9050919050565b6104f9816104de565b82525050565b6000604083016000830151848203600086015261051c828261044f565b915050602083015161053160208601826104f0565b508091505092915050565b6000602082019050818103600083015261055681846104ff565b905092915050565b600080fd5b600080fd5b7f4e487b7100000000000000000000000000000000000000000000000000000000600052604160045260246000fd5b6105a08261043e565b810181811067ffffffffffffffff821117156105bf576105be610568565b5b80604052505050565b60006105d2610378565b90506105de8282610597565b919050565b600067ffffffffffffffff8211156105fe576105fd610568565b5b6106078261043e565b9050602081019050919050565b82818337600083830152505050565b6000610636610631846105e3565b6105c8565b90508281526020810184848401111561065257610651610563565b5b61065d848285610614565b509392505050565b600082601f83011261067a5761067961055e565b5b813561068a848260208601610623565b91505092915050565b600381106106a057600080fd5b50565b6000813590506106b281610693565b92915050565b600080604083850312156106cf576106ce610382565b5b600083013567ffffffffffffffff8111156106ed576106ec610387565b5b6106f985828601610665565b925050602061070a858286016106a3565b9150509250929050565b600082825260208201905092915050565b6000610730826103ef565b61073a8185610714565b935061074a81856020860161040b565b6107538161043e565b840191505092915050565b600060208201905081810360008301526107788184610725565b905092915050565b7f4e487b7100000000000000000000000000000000000000000000000000000000600052602260045260246000fd5b600060028204905060018216806107c757607f821691505b6020821081036107da576107d9610780565b5b50919050565b600081905092915050565b60006107f6826103ef565b61080081856107e0565b935061081081856020860161040b565b80840191505092915050565b60008160f81b9050919050565b60006108348261081c565b9050919050565b61084c610847826104de565b610829565b82525050565b600061085e82856107eb565b915061086a828461083b565b600182019150819050939250505056fea2646970667358221220b0df06497a937c3bbe45897f69d71a25ee12479e31191ab71a68a2361ace371764736f6c634300080e0033",
  "immutableReferences": {},
  "source": "// SPDX-License-Identifier: MIT\npragma solidity ^0.8.4;\npragma experimental ABIEncoderV2;\n\ncontract TodoList {\n    address _owner;\n    uint32 _taskCounter;\n\n    constructor() {\n        _owner = msg.sender;\n        _taskCounter = 0;\n    }\n\n    struct Task {\n        string Name;\n        State Status;\n    }\n\n    enum State {\n        TO_DO,\n        IN_PROGRESS,\n        DONE\n    }\n    mapping(bytes32 => Task) tasks_byHash;\n    Task[] tasks;\n\n    function addTask(string memory _name, State _status) public {\n        Task memory task = Task(_name, _status);\n        bytes32 hash_idTask = keccak256(abi.encodePacked(_name, _status));\n        tasks_byHash[hash_idTask] = task;\n    }\n\n    function getTask(bytes32 _hash_idTask) public view returns (Task memory) {\n        return tasks_byHash[_hash_idTask];\n    }\n\n    function sayHello() public pure returns (string memory) {\n        return 'Hello';\n    }\n}\n",
  "sourcePath": "/Users/xnavarro/Projects/Crypto/Metamask_Connector/contracts/TodoList.sol",
  "compiler": {
    "name": "solc",
    "version": "0.8.14+commit.80d49f37.Emscripten.clang"
  },
  "schemaVersion": "3.4.7",
  "updatedAt": "2022-05-28T17:33:09.319Z",
  "networkType": "ethereum",
  "devdoc": {
    "kind": "dev",
    "methods": {},
    "version": 1
  },
  "userdoc": {
    "kind": "user",
    "methods": {},
    "version": 1
  }
}